{"abi":[{"type":"constructor","inputs":[{"name":"_usdc","type":"address","internalType":"address"},{"name":"_daoToken","type":"address","internalType":"address"},{"name":"_disputeFeeRecipient","type":"address","internalType":"address"}],"stateMutability":"nonpayable"},{"type":"function","name":"APPEAL_FEE","inputs":[],"outputs":[{"name":"","type":"uint256","internalType":"uint256"}],"stateMutability":"view"},{"type":"function","name":"APPEAL_QUORUM_PERCENTAGE","inputs":[],"outputs":[{"name":"","type":"uint256","internalType":"uint256"}],"stateMutability":"view"},{"type":"function","name":"APPEAL_VOTING_DELAY","inputs":[],"outputs":[{"name":"","type":"uint256","internalType":"uint256"}],"stateMutability":"view"},{"type":"function","name":"APPEAL_VOTING_PERIOD","inputs":[],"outputs":[{"name":"","type":"uint256","internalType":"uint256"}],"stateMutability":"view"},{"type":"function","name":"DISPUTE_FEE","inputs":[],"outputs":[{"name":"","type":"uint256","internalType":"uint256"}],"stateMutability":"view"},{"type":"function","name":"MIN_DELAY","inputs":[],"outputs":[{"name":"","type":"uint256","internalType":"uint256"}],"stateMutability":"view"},{"type":"function","name":"QUORUM_PERCENTAGE","inputs":[],"outputs":[{"name":"","type":"uint256","internalType":"uint256"}],"stateMutability":"view"},{"type":"function","name":"USDC","inputs":[],"outputs":[{"name":"","type":"address","internalType":"contract IERC20"}],"stateMutability":"view"},{"type":"function","name":"VOTING_DELAY","inputs":[],"outputs":[{"name":"","type":"uint256","internalType":"uint256"}],"stateMutability":"view"},{"type":"function","name":"VOTING_PERIOD","inputs":[],"outputs":[{"name":"","type":"uint256","internalType":"uint256"}],"stateMutability":"view"},{"type":"function","name":"addMilestone","inputs":[{"name":"campaignId","type":"uint256","internalType":"uint256"},{"name":"description","type":"string","internalType":"string"},{"name":"amount","type":"uint256","internalType":"uint256"}],"outputs":[],"stateMutability":"nonpayable"},{"type":"function","name":"campaigns","inputs":[{"name":"","type":"uint256","internalType":"uint256"}],"outputs":[{"name":"creator","type":"address","internalType":"address"},{"name":"goal","type":"uint256","internalType":"uint256"},{"name":"raised","type":"uint256","internalType":"uint256"},{"name":"deadline","type":"uint64","internalType":"uint64"},{"name":"withdrawn","type":"bool","internalType":"bool"},{"name":"milestonesCount","type":"uint256","internalType":"uint256"}],"stateMutability":"view"},{"type":"function","name":"campaignsCount","inputs":[],"outputs":[{"name":"","type":"uint256","internalType":"uint256"}],"stateMutability":"view"},{"type":"function","name":"cancelAppeal","inputs":[{"name":"disputeId","type":"uint256","internalType":"uint256"}],"outputs":[],"stateMutability":"nonpayable"},{"type":"function","name":"cancelDispute","inputs":[{"name":"disputeId","type":"uint256","internalType":"uint256"}],"outputs":[],"stateMutability":"nonpayable"},{"type":"function","name":"contribute","inputs":[{"name":"campaignId","type":"uint256","internalType":"uint256"},{"name":"amount","type":"uint256","internalType":"uint256"}],"outputs":[],"stateMutability":"nonpayable"},{"type":"function","name":"createAppeal","inputs":[{"name":"disputeId","type":"uint256","internalType":"uint256"}],"outputs":[{"name":"appealId","type":"uint256","internalType":"uint256"}],"stateMutability":"nonpayable"},{"type":"function","name":"createCampaign","inputs":[{"name":"goal","type":"uint256","internalType":"uint256"},{"name":"deadline","type":"uint64","internalType":"uint64"}],"outputs":[{"name":"id","type":"uint256","internalType":"uint256"}],"stateMutability":"nonpayable"},{"type":"function","name":"createDispute","inputs":[{"name":"campaignId","type":"uint256","internalType":"uint256"},{"name":"milestoneId","type":"uint256","internalType":"uint256"},{"name":"disputeType","type":"uint8","internalType":"enum FundloomFactory.DisputeType"}],"outputs":[{"name":"disputeId","type":"uint256","internalType":"uint256"}],"stateMutability":"nonpayable"},{"type":"function","name":"daoToken","inputs":[],"outputs":[{"name":"","type":"address","internalType":"address"}],"stateMutability":"view"},{"type":"function","name":"disputeExists","inputs":[{"name":"","type":"uint256","internalType":"uint256"}],"outputs":[{"name":"","type":"bool","internalType":"bool"}],"stateMutability":"view"},{"type":"function","name":"disputeFeeRecipient","inputs":[],"outputs":[{"name":"","type":"address","internalType":"address"}],"stateMutability":"view"},{"type":"function","name":"disputes","inputs":[{"name":"","type":"uint256","internalType":"uint256"}],"outputs":[{"name":"campaignId","type":"uint256","internalType":"uint256"},{"name":"milestoneId","type":"uint256","internalType":"uint256"},{"name":"disputeType","type":"uint8","internalType":"enum FundloomFactory.DisputeType"},{"name":"proposer","type":"address","internalType":"address"},{"name":"startTime","type":"uint256","internalType":"uint256"},{"name":"endTime","type":"uint256","internalType":"uint256"},{"name":"yesVotes","type":"uint256","internalType":"uint256"},{"name":"noVotes","type":"uint256","internalType":"uint256"},{"name":"executed","type":"bool","internalType":"bool"},{"name":"cancelled","type":"bool","internalType":"bool"},{"name":"appealStatus","type":"uint8","internalType":"enum FundloomFactory.AppealStatus"},{"name":"appealer","type":"address","internalType":"address"},{"name":"appealStartTime","type":"uint256","internalType":"uint256"},{"name":"appealEndTime","type":"uint256","internalType":"uint256"},{"name":"appealYesVotes","type":"uint256","internalType":"uint256"},{"name":"appealNoVotes","type":"uint256","internalType":"uint256"},{"name":"appealExecuted","type":"bool","internalType":"bool"}],"stateMutability":"view"},{"type":"function","name":"executeAppeal","inputs":[{"name":"disputeId","type":"uint256","internalType":"uint256"}],"outputs":[],"stateMutability":"nonpayable"},{"type":"function","name":"executeDispute","inputs":[{"name":"disputeId","type":"uint256","internalType":"uint256"}],"outputs":[],"stateMutability":"nonpayable"},{"type":"function","name":"getCampaignIdFromDispute","inputs":[{"name":"disputeId","type":"uint256","internalType":"uint256"}],"outputs":[{"name":"","type":"uint256","internalType":"uint256"}],"stateMutability":"view"},{"type":"function","name":"getDisputeTypeFromDispute","inputs":[{"name":"disputeId","type":"uint256","internalType":"uint256"}],"outputs":[{"name":"","type":"uint8","internalType":"enum FundloomFactory.DisputeType"}],"stateMutability":"view"},{"type":"function","name":"getDisputesForCampaign","inputs":[{"name":"campaignId","type":"uint256","internalType":"uint256"}],"outputs":[{"name":"","type":"uint256[]","internalType":"uint256[]"}],"stateMutability":"view"},{"type":"function","name":"getMilestoneIdFromDispute","inputs":[{"name":"disputeId","type":"uint256","internalType":"uint256"}],"outputs":[{"name":"","type":"uint256","internalType":"uint256"}],"stateMutability":"view"},{"type":"function","name":"getProposerFromDispute","inputs":[{"name":"disputeId","type":"uint256","internalType":"uint256"}],"outputs":[{"name":"","type":"address","internalType":"address"}],"stateMutability":"view"},{"type":"function","name":"getTotalDisputes","inputs":[],"outputs":[{"name":"","type":"uint256","internalType":"uint256"}],"stateMutability":"view"},{"type":"function","name":"rejectAppeal","inputs":[{"name":"disputeId","type":"uint256","internalType":"uint256"}],"outputs":[],"stateMutability":"nonpayable"},{"type":"function","name":"releaseMilestone","inputs":[{"name":"campaignId","type":"uint256","internalType":"uint256"},{"name":"milestoneId","type":"uint256","internalType":"uint256"}],"outputs":[],"stateMutability":"nonpayable"},{"type":"function","name":"voteOnAppeal","inputs":[{"name":"disputeId","type":"uint256","internalType":"uint256"},{"name":"support","type":"bool","internalType":"bool"}],"outputs":[],"stateMutability":"nonpayable"},{"type":"function","name":"voteOnDispute","inputs":[{"name":"disputeId","type":"uint256","internalType":"uint256"},{"name":"support","type":"bool","internalType":"bool"}],"outputs":[],"stateMutability":"nonpayable"},{"type":"function","name":"withdraw","inputs":[{"name":"campaignId","type":"uint256","internalType":"uint256"}],"outputs":[],"stateMutability":"nonpayable"},{"type":"event","name":"AppealCancelled","inputs":[{"name":"disputeId","type":"uint256","indexed":true,"internalType":"uint256"}],"anonymous":false},{"type":"event","name":"AppealExecuted","inputs":[{"name":"disputeId","type":"uint256","indexed":true,"internalType":"uint256"},{"name":"upheld","type":"bool","indexed":false,"internalType":"bool"}],"anonymous":false},{"type":"event","name":"AppealVoted","inputs":[{"name":"disputeId","type":"uint256","indexed":true,"internalType":"uint256"},{"name":"voter","type":"address","indexed":true,"internalType":"address"},{"name":"support","type":"bool","indexed":false,"internalType":"bool"}],"anonymous":false},{"type":"event","name":"CampaignCreated","inputs":[{"name":"campaignId","type":"uint256","indexed":true,"internalType":"uint256"},{"name":"creator","type":"address","indexed":true,"internalType":"address"},{"name":"goal","type":"uint256","indexed":false,"internalType":"uint256"},{"name":"deadline","type":"uint64","indexed":false,"internalType":"uint64"}],"anonymous":false},{"type":"event","name":"Contributed","inputs":[{"name":"campaignId","type":"uint256","indexed":true,"internalType":"uint256"},{"name":"contributor","type":"address","indexed":true,"internalType":"address"},{"name":"amount","type":"uint256","indexed":false,"internalType":"uint256"}],"anonymous":false},{"type":"event","name":"DisputeAppealed","inputs":[{"name":"disputeId","type":"uint256","indexed":true,"internalType":"uint256"},{"name":"appellant","type":"address","indexed":true,"internalType":"address"}],"anonymous":false},{"type":"event","name":"DisputeCancelled","inputs":[{"name":"disputeId","type":"uint256","indexed":true,"internalType":"uint256"}],"anonymous":false},{"type":"event","name":"DisputeCreated","inputs":[{"name":"disputeId","type":"uint256","indexed":true,"internalType":"uint256"},{"name":"proposer","type":"address","indexed":true,"internalType":"address"},{"name":"disputeType","type":"uint8","indexed":false,"internalType":"enum FundloomFactory.DisputeType"}],"anonymous":false},{"type":"event","name":"DisputeExecuted","inputs":[{"name":"disputeId","type":"uint256","indexed":true,"internalType":"uint256"}],"anonymous":false},{"type":"event","name":"DisputeVoted","inputs":[{"name":"disputeId","type":"uint256","indexed":true,"internalType":"uint256"},{"name":"voter","type":"address","indexed":true,"internalType":"address"},{"name":"support","type":"bool","indexed":false,"internalType":"bool"}],"anonymous":false},{"type":"event","name":"MilestoneAdded","inputs":[{"name":"campaignId","type":"uint256","indexed":true,"internalType":"uint256"},{"name":"milestoneId","type":"uint256","indexed":true,"internalType":"uint256"},{"name":"description","type":"string","indexed":false,"internalType":"string"},{"name":"amount","type":"uint256","indexed":false,"internalType":"uint256"}],"anonymous":false},{"type":"event","name":"MilestoneReleased","inputs":[{"name":"campaignId","type":"uint256","indexed":true,"internalType":"uint256"},{"name":"milestoneId","type":"uint256","indexed":true,"internalType":"uint256"},{"name":"amount","type":"uint256","indexed":false,"internalType":"uint256"}],"anonymous":false},{"type":"event","name":"Withdrawn","inputs":[{"name":"campaignId","type":"uint256","indexed":true,"internalType":"uint256"},{"name":"creator","type":"address","indexed":true,"internalType":"address"},{"name":"amount","type":"uint256","indexed":false,"internalType":"uint256"}],"anonymous":false}],"bytecode":{"object":"0x60a0346100d957601f61289c38819003918201601f19168301916001600160401b038311848410176100dd578084926060946040528339810103126100d957610047816100f1565b906100606040610059602084016100f1565b92016100f1565b6001600160a01b039283166080525f80549284166001600160a01b0319938416179055600180549190931691161790556040516127969081610106823960805181818161025601528181610738015281816110b0015281816111910152818161177501528181611ad701528181611c9a015261208a0152f35b5f80fd5b634e487b7160e01b5f52604160045260245ffd5b51906001600160a01b03821682036100d95756fe60806040526004361015610011575f80fd5b5f3560e01c8063141961bc1461212e578063184a715a1461084a5780632e1a7d4d14611ff5578063308ee73114611ed457806344c89b6514611eb75780634914b03014611e90578063519c8891146119a5578063564a565d14611889578063639f4a7a14611642578063706802fb146114a657806388be38cd14611349578063898aadf1146111c057806389a302711461117c5780638c5909171461104d5780638ccb039f1461102257806390fbef7814610892578063916318b114610ea2578063928cd33014610e7a5780639645313214610e4b57806397fbc2fb14610e2e57806398df912e14610b6757806399fd22f114610a1f5780639f81aed71461084a578063a4f5df12146108cc578063a672d10914610897578063b1610d7e14610892578063b1decaeb14610877578063cea41caa1461084f578063d6159fe51461084a578063d7eb69291461082c578063dbaf091014610675578063dc755e9d14610658578063df02935c146104ae578063e5b1fc3014610475578063ee8a7c151461045a5763f0b070ca146101a5575f80fd5b34610456576020366003190112610456576004356101c2816121e6565b5090805f5260036020526101dc60ff60405f20541661230d565b6007820160ff81546101ef828216612352565b60101c166004811015610442576103f157600283015460081c6001600160a01b031633036103ac576001546040516323b872dd60e01b81523360048201526001600160a01b0391821660248201526301312d00604482015290602090829060649082905f907f0000000000000000000000000000000000000000000000000000000000000000165af19081156103a1575f91610372575b501561033757805462010000600160b81b0319163360181b6301000000600160b81b031617620100001790554260088301819055620151808101908110610323576205460042018091116103235782600c91600960209501555f600a8201555f600b8201550160ff1981541690556040519033907fb7d987c7b3077187f28b5a254b9e07864507b257e6b84721cab6faaf346481f05f80a35f8152f35b634e487b7160e01b5f52601160045260245ffd5b60405162461bcd60e51b8152602060048201526013602482015272185c1c19585b08199959481b9bdd081c185a59606a1b6044820152606490fd5b610394915060203d60201161039a575b61038c818361229b565b8101906122bd565b5f610286565b503d610382565b6040513d5f823e3d90fd5b60405162461bcd60e51b815260206004820152601860248201527f6f6e6c792070726f706f7365722063616e2061707065616c00000000000000006044820152606490fd5b60405162461bcd60e51b8152602060048201526024808201527f61707065616c20616c726561647920657869737473206f7220696e2070726f676044820152637265737360e01b6064820152608490fd5b634e487b7160e01b5f52602160045260245ffd5b5f80fd5b34610456575f36600319011261045657602060405160048152f35b346104565760203660031901126104565760206104936004356121e6565b506002015460405160089190911c6001600160a01b03168152f35b34610456576020366003190112610456576004356104cb816121e6565b50815f5260036020526104e460ff60405f20541661230d565b600281015460081c6001600160a01b031633036106135760048101544210156105ce57600701805460ff81166105895760ff8160081c166105505761ff0019166101001790557f7fe0314ddd8432eac273e729cc289f5a8f8a7860761b74472f4782fbaccd2c5f5f80a2005b60405162461bcd60e51b8152602060048201526011602482015270185b1c9958591e4818d85b98d95b1b1959607a1b6044820152606490fd5b60405162461bcd60e51b815260206004820152601e60248201527f63616e6e6f742063616e63656c206578656375746564206469737075746500006044820152606490fd5b60405162461bcd60e51b815260206004820152601f60248201527f63616e6e6f742063616e63656c20616674657220766f74696e6720656e6473006044820152606490fd5b60405162461bcd60e51b815260206004820152601860248201527f6f6e6c792070726f706f7365722063616e2063616e63656c00000000000000006044820152606490fd5b34610456575f366003190112610456576020604051629896808152f35b34610456576106833661220f565b9061068d816121ad565b506106a260018060a01b038254163314612261565b825f526005810160205260405f20906002820191825460ff8160081c16156107f85760ff166003811015610442576001036107c457610733925f92600160209301916106f0835415156125a3565b805460ff191660021790558154939091555460405163a9059cbb60e01b81526001600160a01b039190911660048201526024810183905292839081906044820190565b03815f7f00000000000000000000000000000000000000000000000000000000000000006001600160a01b03165af19081156103a15761079e6020927fd33fcd27cbfb73a2d9058c968b560ccb306500bf536133802048489ecc7355e9945f916107a7575b506122d5565b604051908152a3005b6107be9150843d861161039a5761038c818361229b565b87610798565b60405162461bcd60e51b815260206004820152600c60248201526b1b9bdd08185c1c1c9bdd995960a21b6044820152606490fd5b60405162461bcd60e51b815260206004820152600c60248201526b6e6f206d696c6573746f6e6560a01b6044820152606490fd5b34610456575f3660031901126104565760206040516301312d008152f35b6121c9565b3461045657602036600319011261045657602061086d6004356121e6565b5054604051908152f35b34610456575f366003190112610456576020604051600a8152f35b612225565b3461045657602036600319011261045657602060ff60026108b96004356121e6565b500154166108ca6040518092612202565bf35b34610456576108da36612242565b906108e4816121e6565b50815f5260036020526108fd60ff60405f20541661230d565b61091d60ff600783015461091382821615612517565b60081c1615612563565b600381015442106109e157600481015442116109a65761093c33612722565b9061094882151561267f565b831561099057600561095d9101918254612482565b90555b60405191151582527f910296c2d7f214e2d62a9c4e6e403cc9c5ac4585d96830dbf018e51c75fd082660203393a3005b600661099f9101918254612482565b9055610960565b60405162461bcd60e51b81526020600482015260136024820152721d9bdd1a5b99c81c195c9a5bd908195b991959606a1b6044820152606490fd5b60405162461bcd60e51b81526020600482015260166024820152751d9bdd1a5b99c81b9bdd081cdd185c9d1959081e595d60521b6044820152606490fd5b34610456576040366003190112610456576004356024359067ffffffffffffffff8216809203610456578015610b395742821115610b0e57600454600160401b811015610afa576004610a788260015f940183556121ad565b5080546001600160a01b03191633178155600181018490556002810183905560038101805468ffffffffffffffffff19168617905501556004545f198101919082116103235760209260405191825283820152817f74fde04117590b436b183362396964e2dfe8106578e268240a05c3bac769146060403393a3604051908152f35b634e487b7160e01b5f52604160045260245ffd5b606460405162461bcd60e51b81526020600482015260046024820152631c185cdd60e21b6044820152fd5b60405162461bcd60e51b81526020600482015260066024820152650676f616c3d360d41b6044820152606490fd5b346104565760603660031901126104565760243560043567ffffffffffffffff8211610456573660238301121561045657816004013567ffffffffffffffff811161045657602483019260248236920101116104565760443590610bca836121ad565b5091610be060018060a01b038454163314612261565b610beb811515612648565b6004830194855495604051926080840184811067ffffffffffffffff821117610afa57604052601f19601f86011691604051610c2a602085018261229b565b868152868560208301375f602088830101528552602085019482865260408101955f87526005606083019960018b528c5f520160205260405f20915180519067ffffffffffffffff8211610afa578354600181811c91168015610e24575b6020821014610e1057601f8111610dcb575b50602090601f8311600114610d64576002949392915f9183610d59575b50508160011b915f199060031b1c19161782555b516001820155019451946003861015610442577fc67423104bf96f5ca8826913ae711e8c2254e1b2c04af907b2312853ed4cbed29760609660ff8019845416911617825551151561ff0082549160081b169061ff001916179055610d2f8154612622565b90555f848660405197889660408852816040890152838801378501015260208301528101030190a3005b015190508e80610cb7565b90601f19831691855f52815f20925f5b818110610db3575091600193918560029897969410610d9b575b505050811b018255610ccb565b01515f1960f88460031b161c191690558e8080610d8e565b92936020600181928786015181550195019301610d74565b845f5260205f20601f840160051c81019160208510610e06575b601f0160051c01905b818110610dfb5750610c9a565b5f8155600101610dee565b9091508190610de5565b634e487b7160e01b5f52602260045260245ffd5b90607f1690610c88565b34610456575f366003190112610456576020600254604051908152f35b34610456576020366003190112610456576004355f526003602052602060ff60405f2054166040519015158152f35b34610456575f366003190112610456576001546040516001600160a01b039091168152602090f35b3461045657610eb036612242565b90610eba816121e6565b50815f526003602052610ed360ff60405f20541661230d565b60ff6007820154610ee5828216612352565b60101c166004811015610442576001610efe911461239e565b60088101544210610fdd5760098101544211610f9857610f2560ff600c8301541615612436565b610f2e33612722565b90610f3a82151561267f565b8315610f8257600a610f4f9101918254612482565b90555b60405191151582527f9a91a5989bab6dc09fa077b8bbfd33d5b1b9dea183659761819d6d941aed535f60203393a3005b600b610f919101918254612482565b9055610f52565b60405162461bcd60e51b815260206004820152601a60248201527f61707065616c20766f74696e6720706572696f6420656e6465640000000000006044820152606490fd5b60405162461bcd60e51b815260206004820152601d60248201527f61707065616c20766f74696e67206e6f742073746172746564207965740000006044820152606490fd5b3461045657602036600319011261045657602060016110426004356121e6565b500154604051908152f35b346104565761105b3661220f565b90611065816121ad565b5067ffffffffffffffff600382015416421161114f57611086831515612648565b6040516323b872dd60e01b815233600482015230602482015260448101849052906020826064815f7f00000000000000000000000000000000000000000000000000000000000000006001600160a01b03165af19182156103a1576002926110f4915f9161113057506122d5565b01611100838254612482565b90556040519182527fb2ed2e021651f85a4754a44651fc09ac5141bc0329ce4dfe8dd712a5d04a8b3960203393a3005b611149915060203d60201161039a5761038c818361229b565b86610798565b60405162461bcd60e51b8152602060048201526005602482015264195b99195960da1b6044820152606490fd5b34610456575f366003190112610456576040517f00000000000000000000000000000000000000000000000000000000000000006001600160a01b03168152602090f35b34610456576020366003190112610456576004356111dd816121e6565b50815f5260036020526111f660ff60405f20541661230d565b6007810160ff8154611209828216612352565b60101c166004811015610442576001611222911461239e565b61123260098301544210156123ea565b600c82019161124560ff84541615612436565b600b600a8201549101549061125a8282612482565b8015611266811561248f565b61126e6126bd565b9060648302928304606414171561032357600a810290808204600a14901517156103235761129d9110156124cb565b11156112ea576202000062ff000019825416179055600160ff198254161790557f18b56281060decec9eaf698a716cc743d26b2eae11f247f76379bbbd38648ff1602060405160018152a2005b60405162461bcd60e51b815260206004820152603160248201527f61707065616c206d616a6f7269747920646964206e6f74207570686f6c64206f6044820152703934b3b4b730b61032bc32b1baba34b7b760791b6064820152608490fd5b34610456576020366003190112610456576002545f90600435825b82811061145c575061138e61137884612630565b93611386604051958661229b565b808552612630565b602084019290601f19013684375f915f5b8281106113ea578486604051918291602083019060208452518091526040830191905f5b8181106113d1575050500390f35b82518452859450602093840193909201916001016113c3565b816113f4826121e6565b50541480611446575b61140a575b60010161139f565b9285518110156114325761142a8185602060019460051b8a010152612622565b939050611402565b634e487b7160e01b5f52603260045260245ffd5b50805f52600360205260ff60405f2054166113fd565b81611466826121e6565b50541480611490575b61147c575b600101611364565b92611488600191612622565b939050611474565b50805f52600360205260ff60405f20541661146f565b34610456576020366003190112610456576004356114c3816121e6565b50815f5260036020526114dc60ff60405f20541661230d565b600781019081546114ef60ff8216612352565b60ff8160101c16600481101561044257600161150b911461239e565b60181c6001600160a01b031633036115fd5760098101544210156115a957600c015460ff1661156457805462ff0000191690557fa98d44ff882380022d3e809b98f30e5e457ccf63f321b513b562ab3b8cd561d35f80a2005b60405162461bcd60e51b815260206004820152601d60248201527f63616e6e6f742063616e63656c2065786563757465642061707065616c0000006044820152606490fd5b60405162461bcd60e51b815260206004820152602660248201527f63616e6e6f742063616e63656c2061667465722061707065616c20766f74696e6044820152656720656e647360d01b6064820152608490fd5b60405162461bcd60e51b815260206004820152601860248201527f6f6e6c792061707065616c65722063616e2063616e63656c00000000000000006044820152606490fd5b346104565760603660031901126104565760443560043560028210156104565761166b816121ad565b50546001600160a01b031633036118445760025490600160401b821015610afa57600182018060025561169d836121e6565b50508211610323576116ae826121e6565b5090815560243560018201556002810180546001600160a81b03191660ff8516173360081b610100600160a81b0316179055426003820181905562015180810191908210610323576205460042018092116103235760079160048201555f60058201555f60068201550161ffff198154169055805f52600360205260405f20600160ff1982541617905560018060a01b0360015416604051906323b872dd60e01b825233600483015260248201526298968060448201526020816064815f60018060a01b037f0000000000000000000000000000000000000000000000000000000000000000165af19081156103a1575f91611825575b50156117e9576020916117bb6040518092612202565b817fe7b4a484a5b56352496caec3038dbb012e94cd73b5b0f474e24b7b2aa9040ba8843393a3604051908152f35b60405162461bcd60e51b8152602060048201526014602482015273191a5cdc1d5d1948199959481b9bdd081c185a5960621b6044820152606490fd5b61183e915060203d60201161039a5761038c818361229b565b836117a5565b60405162461bcd60e51b815260206004820152601f60248201527f6f6e6c792063726561746f722063616e206372656174652064697370757465006044820152606490fd5b3461045657602036600319011261045657600435600254811015610456576118b0906121e6565b5080546001820154600283015492600381015493600482015494600583015495600684015460078501549060ff8260101c1698600887015493600988015495600a8901549760ff600c600b8c01549b0154169a6040519c8d5260208d015261191e60408d0160ff8316612202565b60018060a01b039060081c1660608c015260808b015260a08a015260c089015260e088015260ff8116151561010088015260ff8160081c1615156101208801526004881015610442576102209761014088015260018060a01b039060181c166101608701526101808601526101a08501526101c08401526101e08301521515610200820152f35b34610456576020366003190112610456576004356119c2816121e6565b50815f5260036020526119db60ff60405f20541661230d565b60048101544210611e4b5760078101906119fe60ff835461091382821615612517565b6005810154600682015490611a138282612482565b801590611a20821561248f565b611a286126bd565b91606482029182046064141715610323578160021b91808304600414901517156103235710611e11571115611dcc5760ff60028201541660028110156104425780611bd95750611a7881546121ad565b506003810180549260ff8460401c16611ba057600283015460ff60401b19909416600160401b17909155815460405163a9059cbb60e01b81526001600160a01b039190911660048201526024810184905290602082806044810103815f7f00000000000000000000000000000000000000000000000000000000000000006001600160a01b03165af19081156103a157611b3d6020927fcf7d23a3cbe4e8b36ff82fd1b05b1b17373dc7804b4ebbd6e2356716ef202372945f91611b83575b506125e4565b5492546040519485526001600160a01b031693a35b805460ff191660011790557fc69f94b4c4525853939f5f9788c75d9a798c6e4b56150e398191cf0ec9cc76f05f80a2005b611b9a9150843d861161039a5761038c818361229b565b89611b37565b60405162461bcd60e51b815260206004820152601160248201527030b63932b0b23c903bb4ba34323930bbb760791b6044820152606490fd5b600114611be7575b50611b52565b611bf181546121ad565b50600182019081546004820154811015611d93575f526005810160205260405f20926002840193845460ff8160081c1615611d4e5760ff16600381101561044257600103611d10575f94611c959360016020930191611c52835415156125a3565b805460ff191660021790558154969091555460405163a9059cbb60e01b81526001600160a01b039190911660048201526024810186905292839081906044820190565b03815f7f00000000000000000000000000000000000000000000000000000000000000006001600160a01b03165af19081156103a157611cff6020927fd33fcd27cbfb73a2d9058c968b560ccb306500bf536133802048489ecc7355e9945f91611b8357506125e4565b54925493604051908152a382611be1565b60405162461bcd60e51b81526020600482015260166024820152751b5a5b195cdd1bdb99481b9bdd08185c1c1c9bdd995960521b6044820152606490fd5b60405162461bcd60e51b815260206004820152601860248201527f6d696c6573746f6e6520646f6573206e6f7420657869737400000000000000006044820152606490fd5b60405162461bcd60e51b8152602060048201526011602482015270696e76616c6964206d696c6573746f6e6560781b6044820152606490fd5b60405162461bcd60e51b815260206004820152601860248201527f6d616a6f7269747920646964206e6f7420617070726f766500000000000000006044820152606490fd5b60405162461bcd60e51b81526020600482015260126024820152711c5d5bdc9d5b481b9bdd081c995858da195960721b6044820152606490fd5b60405162461bcd60e51b815260206004820152601760248201527f766f74696e6720706572696f64206e6f7420656e6465640000000000000000006044820152606490fd5b34610456575f366003190112610456575f546040516001600160a01b039091168152602090f35b34610456575f366003190112610456576020600454604051908152f35b3461045657602036600319011261045657600435611ef1816121e6565b50815f526003602052611f0a60ff60405f20541661230d565b6007810160ff8154611f1d828216612352565b60101c166004811015610442576001611f36911461239e565b611f4660098301544210156123ea565b611f6c600c830192611f5c60ff85541615612436565b600b600a82015491015490612482565b8015611f78811561248f565b611f806126bd565b9060648302928304606414171561032357600a810290808204600a149015171561032357611faf9110156124cb565b6203000062ff000019825416179055600160ff198254161790557f18b56281060decec9eaf698a716cc743d26b2eae11f247f76379bbbd38648ff160206040515f8152a2005b3461045657602036600319011261045657600435612012816121ad565b5080546001600160a01b0316919061202b338414612261565b6003810190815460ff8160401c166121035760ff60401b1916600160401b179091556002810180545f90915560405163a9059cbb60e01b81526001600160a01b039094166004850152602484018190529290602082806044810103815f7f00000000000000000000000000000000000000000000000000000000000000006001600160a01b03165af19081156103a1576120ef6020927fcf7d23a3cbe4e8b36ff82fd1b05b1b17373dc7804b4ebbd6e2356716ef202372945f916107a757506122d5565b546040519485526001600160a01b031693a3005b606460405162461bcd60e51b8152602060048201526004602482015263646f6e6560e01b6044820152fd5b34610456576020366003190112610456576004356004548110156104565761215760c0916121ad565b5060018060a01b038154169060ff600182015491600281015460046003830154920154936040519586526020860152604085015267ffffffffffffffff8116606085015260401c161515608083015260a0820152f35b6004548110156114325760045f52600660205f20910201905f90565b34610456575f366003190112610456576020604051620151808152f35b6002548110156114325760025f52600d60205f20910201905f90565b9060028210156104425752565b6040906003190112610456576004359060243590565b34610456575f3660031901126104565760206040516203f4808152f35b6040906003190112610456576004359060243580151581036104565790565b1561226857565b60405162461bcd60e51b815260206004820152600b60248201526a3737ba1031b932b0ba37b960a91b6044820152606490fd5b90601f8019910116810190811067ffffffffffffffff821117610afa57604052565b90816020910312610456575180151581036104565790565b156122dc57565b60405162461bcd60e51b81526020600482015260096024820152681e19995c8819985a5b60ba1b6044820152606490fd5b1561231457565b60405162461bcd60e51b8152602060048201526016602482015275191a5cdc1d5d1948191bd95cc81b9bdd08195e1a5cdd60521b6044820152606490fd5b1561235957565b60405162461bcd60e51b815260206004820152601860248201527f64697370757465206e6f742065786563757465642079657400000000000000006044820152606490fd5b156123a557565b60405162461bcd60e51b815260206004820152601b60248201527f61707065616c206e6f7420696e20766f74696e6720706572696f6400000000006044820152606490fd5b156123f157565b60405162461bcd60e51b815260206004820152601e60248201527f61707065616c20766f74696e6720706572696f64206e6f7420656e64656400006044820152606490fd5b1561243d57565b60405162461bcd60e51b815260206004820152601760248201527f61707065616c20616c72656164792065786563757465640000000000000000006044820152606490fd5b9190820180921161032357565b1561249657565b60405162461bcd60e51b815260206004820152600d60248201526c1b9bc81d9bdd195cc818d85cdd609a1b6044820152606490fd5b156124d257565b60405162461bcd60e51b815260206004820152601960248201527f61707065616c2071756f72756d206e6f742072656163686564000000000000006044820152606490fd5b1561251e57565b60405162461bcd60e51b815260206004820152601860248201527f6469737075746520616c726561647920657865637574656400000000000000006044820152606490fd5b1561256a57565b60405162461bcd60e51b8152602060048201526011602482015270191a5cdc1d5d194818d85b98d95b1b1959607a1b6044820152606490fd5b156125aa57565b60405162461bcd60e51b81526020600482015260126024820152716e6f7468696e6720746f2072656c6561736560701b6044820152606490fd5b156125eb57565b60405162461bcd60e51b815260206004820152600f60248201526e1d1c985b9cd9995c8819985a5b1959608a1b6044820152606490fd5b5f1981146103235760010190565b67ffffffffffffffff8111610afa5760051b60200190565b1561264f57565b60405162461bcd60e51b81526020600482015260086024820152670616d6f756e743d360c41b6044820152606490fd5b1561268657565b60405162461bcd60e51b815260206004820152600f60248201526e3737903b37ba34b733903837bbb2b960891b6044820152606490fd5b5f546040516318160ddd60e01b815290602090829060049082906001600160a01b03165afa9081156103a1575f916126f3575090565b90506020813d60201161271a575b8161270e6020938361229b565b81010312610456575190565b3d9150612701565b5f546040516370a0823160e01b81526001600160a01b0392831660048201529160209183916024918391165afa9081156103a1575f916126f357509056fea2646970667358221220a1d185e714a2a114d2cec276c840665240dc8c478bc18b122e0137167811786d64736f6c634300081e0033","linkReferences":{}},"methodIdentifiers":{"APPEAL_FEE()":"d7eb6929","APPEAL_QUORUM_PERCENTAGE()":"b1decaeb","APPEAL_VOTING_DELAY()":"184a715a","APPEAL_VOTING_PERIOD()":"90fbef78","DISPUTE_FEE()":"dc755e9d","MIN_DELAY()":"9f81aed7","QUORUM_PERCENTAGE()":"ee8a7c15","USDC()":"89a30271","VOTING_DELAY()":"d6159fe5","VOTING_PERIOD()":"b1610d7e","addMilestone(uint256,string,uint256)":"98df912e","campaigns(uint256)":"141961bc","campaignsCount()":"44c89b65","cancelAppeal(uint256)":"706802fb","cancelDispute(uint256)":"df02935c","contribute(uint256,uint256)":"8c590917","createAppeal(uint256)":"f0b070ca","createCampaign(uint256,uint64)":"99fd22f1","createDispute(uint256,uint256,uint8)":"639f4a7a","daoToken()":"4914b030","disputeExists(uint256)":"96453132","disputeFeeRecipient()":"928cd330","disputes(uint256)":"564a565d","executeAppeal(uint256)":"898aadf1","executeDispute(uint256)":"519c8891","getCampaignIdFromDispute(uint256)":"cea41caa","getDisputeTypeFromDispute(uint256)":"a672d109","getDisputesForCampaign(uint256)":"88be38cd","getMilestoneIdFromDispute(uint256)":"8ccb039f","getProposerFromDispute(uint256)":"e5b1fc30","getTotalDisputes()":"97fbc2fb","rejectAppeal(uint256)":"308ee731","releaseMilestone(uint256,uint256)":"dbaf0910","voteOnAppeal(uint256,bool)":"916318b1","voteOnDispute(uint256,bool)":"a4f5df12","withdraw(uint256)":"2e1a7d4d"},"id":21}