{
  "abi": [
    {
      "type": "constructor",
      "inputs": [
        {
          "name": "_usdc",
          "type": "address",
          "internalType": "address"
        }
      ],
      "stateMutability": "nonpayable"
    },
    {
      "type": "function",
      "name": "addMilestone",
      "inputs": [
        {
          "name": "campaignId",
          "type": "uint256",
          "internalType": "uint256"
        },
        {
          "name": "description",
          "type": "string",
          "internalType": "string"
        },
        {
          "name": "amount",
          "type": "uint256",
          "internalType": "uint256"
        }
      ],
      "outputs": [],
      "stateMutability": "nonpayable"
    },
    {
      "type": "function",
      "name": "approveMilestone",
      "inputs": [
        {
          "name": "campaignId",
          "type": "uint256",
          "internalType": "uint256"
        },
        {
          "name": "milestoneId",
          "type": "uint256",
          "internalType": "uint256"
        }
      ],
      "outputs": [],
      "stateMutability": "nonpayable"
    },
    {
      "type": "function",
      "name": "campaigns",
      "inputs": [
        {
          "name": "",
          "type": "uint256",
          "internalType": "uint256"
        }
      ],
      "outputs": [
        {
          "name": "creator",
          "type": "address",
          "internalType": "address"
        },
        {
          "name": "goal",
          "type": "uint256",
          "internalType": "uint256"
        },
        {
          "name": "raised",
          "type": "uint256",
          "internalType": "uint256"
        },
        {
          "name": "deadline",
          "type": "uint64",
          "internalType": "uint64"
        },
        {
          "name": "withdrawn",
          "type": "bool",
          "internalType": "bool"
        },
        {
          "name": "milestonesCount",
          "type": "uint256",
          "internalType": "uint256"
        }
      ],
      "stateMutability": "view"
    },
    {
      "type": "function",
      "name": "campaignsCount",
      "inputs": [],
      "outputs": [
        {
          "name": "",
          "type": "uint256",
          "internalType": "uint256"
        }
      ],
      "stateMutability": "view"
    },
    {
      "type": "function",
      "name": "contribute",
      "inputs": [
        {
          "name": "id",
          "type": "uint256",
          "internalType": "uint256"
        },
        {
          "name": "amount",
          "type": "uint256",
          "internalType": "uint256"
        }
      ],
      "outputs": [],
      "stateMutability": "nonpayable"
    },
    {
      "type": "function",
      "name": "createCampaign",
      "inputs": [
        {
          "name": "goal",
          "type": "uint256",
          "internalType": "uint256"
        },
        {
          "name": "deadline",
          "type": "uint64",
          "internalType": "uint64"
        }
      ],
      "outputs": [
        {
          "name": "id",
          "type": "uint256",
          "internalType": "uint256"
        }
      ],
      "stateMutability": "nonpayable"
    },
    {
      "type": "function",
      "name": "getCampaign",
      "inputs": [
        {
          "name": "id",
          "type": "uint256",
          "internalType": "uint256"
        }
      ],
      "outputs": [
        {
          "name": "creator",
          "type": "address",
          "internalType": "address"
        },
        {
          "name": "goal",
          "type": "uint256",
          "internalType": "uint256"
        },
        {
          "name": "raised",
          "type": "uint256",
          "internalType": "uint256"
        },
        {
          "name": "deadline",
          "type": "uint64",
          "internalType": "uint64"
        },
        {
          "name": "withdrawn",
          "type": "bool",
          "internalType": "bool"
        },
        {
          "name": "milestonesCount",
          "type": "uint256",
          "internalType": "uint256"
        }
      ],
      "stateMutability": "view"
    },
    {
      "type": "function",
      "name": "getMilestone",
      "inputs": [
        {
          "name": "campaignId",
          "type": "uint256",
          "internalType": "uint256"
        },
        {
          "name": "milestoneId",
          "type": "uint256",
          "internalType": "uint256"
        }
      ],
      "outputs": [
        {
          "name": "description",
          "type": "string",
          "internalType": "string"
        },
        {
          "name": "amount",
          "type": "uint256",
          "internalType": "uint256"
        },
        {
          "name": "status",
          "type": "uint8",
          "internalType": "enum FundloomFactory.MilestoneStatus"
        },
        {
          "name": "exists",
          "type": "bool",
          "internalType": "bool"
        }
      ],
      "stateMutability": "view"
    },
    {
      "type": "function",
      "name": "releaseMilestone",
      "inputs": [
        {
          "name": "campaignId",
          "type": "uint256",
          "internalType": "uint256"
        },
        {
          "name": "milestoneId",
          "type": "uint256",
          "internalType": "uint256"
        }
      ],
      "outputs": [],
      "stateMutability": "nonpayable"
    },
    {
      "type": "function",
      "name": "usdc",
      "inputs": [],
      "outputs": [
        {
          "name": "",
          "type": "address",
          "internalType": "contract IERC20"
        }
      ],
      "stateMutability": "view"
    },
    {
      "type": "function",
      "name": "withdraw",
      "inputs": [
        {
          "name": "id",
          "type": "uint256",
          "internalType": "uint256"
        }
      ],
      "outputs": [],
      "stateMutability": "nonpayable"
    },
    {
      "type": "event",
      "name": "CampaignCreated",
      "inputs": [
        {
          "name": "id",
          "type": "uint256",
          "indexed": true,
          "internalType": "uint256"
        },
        {
          "name": "creator",
          "type": "address",
          "indexed": true,
          "internalType": "address"
        },
        {
          "name": "goal",
          "type": "uint256",
          "indexed": false,
          "internalType": "uint256"
        },
        {
          "name": "deadline",
          "type": "uint64",
          "indexed": false,
          "internalType": "uint64"
        }
      ],
      "anonymous": false
    },
    {
      "type": "event",
      "name": "Contributed",
      "inputs": [
        {
          "name": "id",
          "type": "uint256",
          "indexed": true,
          "internalType": "uint256"
        },
        {
          "name": "donor",
          "type": "address",
          "indexed": true,
          "internalType": "address"
        },
        {
          "name": "amount",
          "type": "uint256",
          "indexed": false,
          "internalType": "uint256"
        }
      ],
      "anonymous": false
    },
    {
      "type": "event",
      "name": "MilestoneAdded",
      "inputs": [
        {
          "name": "campaignId",
          "type": "uint256",
          "indexed": true,
          "internalType": "uint256"
        },
        {
          "name": "milestoneId",
          "type": "uint256",
          "indexed": true,
          "internalType": "uint256"
        },
        {
          "name": "amount",
          "type": "uint256",
          "indexed": false,
          "internalType": "uint256"
        }
      ],
      "anonymous": false
    },
    {
      "type": "event",
      "name": "MilestoneApproved",
      "inputs": [
        {
          "name": "campaignId",
          "type": "uint256",
          "indexed": true,
          "internalType": "uint256"
        },
        {
          "name": "milestoneId",
          "type": "uint256",
          "indexed": true,
          "internalType": "uint256"
        }
      ],
      "anonymous": false
    },
    {
      "type": "event",
      "name": "MilestoneReleased",
      "inputs": [
        {
          "name": "campaignId",
          "type": "uint256",
          "indexed": true,
          "internalType": "uint256"
        },
        {
          "name": "milestoneId",
          "type": "uint256",
          "indexed": true,
          "internalType": "uint256"
        },
        {
          "name": "amount",
          "type": "uint256",
          "indexed": false,
          "internalType": "uint256"
        }
      ],
      "anonymous": false
    },
    {
      "type": "event",
      "name": "Withdrawn",
      "inputs": [
        {
          "name": "id",
          "type": "uint256",
          "indexed": true,
          "internalType": "uint256"
        },
        {
          "name": "creator",
          "type": "address",
          "indexed": true,
          "internalType": "address"
        },
        {
          "name": "amount",
          "type": "uint256",
          "indexed": false,
          "internalType": "uint256"
        }
      ],
      "anonymous": false
    }
  ],
  "bytecode": {
    "object": "0x60a060405234801561000f575f5ffd5b506040516121a63803806121a6833981810160405281019061003191906100c9565b8073ffffffffffffffffffffffffffffffffffffffff1660808173ffffffffffffffffffffffffffffffffffffffff1681525050506100f4565b5f5ffd5b5f73ffffffffffffffffffffffffffffffffffffffff82169050919050565b5f6100988261006f565b9050919050565b6100a88161008e565b81146100b2575f5ffd5b50565b5f815190506100c38161009f565b92915050565b5f602082840312156100de576100dd61006b565b5b5f6100eb848285016100b5565b91505092915050565b6080516120856101215f395f81816105df01528181610751015281816108e2015261114d01526120855ff3fe608060405234801561000f575f5ffd5b50600436106100a7575f3560e01c80635598f8cc1161006f5780635598f8cc146101545780638c590917146101895780638ed9895c146101a557806398df912e146101d857806399fd22f1146101f4578063dbaf091014610224576100a7565b8063141961bc146100ab57806320913da5146100e05780632e1a7d4d146100fc5780633e413bee1461011857806344c89b6514610136575b5f5ffd5b6100c560048036038101906100c091906112c2565b610240565b6040516100d796959493929190611377565b60405180910390f35b6100fa60048036038101906100f591906113d6565b6102c5565b005b610116600480360381019061011191906112c2565b6104b4565b005b61012061074f565b60405161012d919061146f565b60405180910390f35b61013e610773565b60405161014b9190611488565b60405180910390f35b61016e600480360381019061016991906112c2565b61077e565b60405161018096959493929190611377565b60405180910390f35b6101a3600480360381019061019e91906113d6565b610818565b005b6101bf60048036038101906101ba91906113d6565b610a2a565b6040516101cf9493929190611584565b60405180910390f35b6101f260048036038101906101ed919061162f565b610b2a565b005b61020e600480360381019061020991906116ca565b610d7c565b60405161021b9190611488565b60405180910390f35b61023e600480360381019061023991906113d6565b610f38565b005b5f818154811061024e575f80fd5b905f5260205f2090600602015f91509050805f015f9054906101000a900473ffffffffffffffffffffffffffffffffffffffff1690806001015490806002015490806003015f9054906101000a900467ffffffffffffffff16908060030160089054906101000a900460ff16908060040154905086565b5f5f83815481106102d9576102d8611708565b5b905f5260205f2090600602019050805f015f9054906101000a900473ffffffffffffffffffffffffffffffffffffffff1673ffffffffffffffffffffffffffffffffffffffff163373ffffffffffffffffffffffffffffffffffffffff1614610377576040517f08c379a000000000000000000000000000000000000000000000000000000000815260040161036e9061177f565b60405180910390fd5b5f816005015f8481526020019081526020015f2090508060020160019054906101000a900460ff166103de576040517f08c379a00000000000000000000000000000000000000000000000000000000081526004016103d5906117e7565b60405180910390fd5b5f60028111156103f1576103f0611511565b5b816002015f9054906101000a900460ff16600281111561041457610413611511565b5b14610454576040517f08c379a000000000000000000000000000000000000000000000000000000000815260040161044b9061184f565b60405180910390fd5b6001816002015f6101000a81548160ff0219169083600281111561047b5761047a611511565b5b021790555082847f939da3b627c123c81fe5aacebf925163337a0d4f8a03724640618078cad2489460405160405180910390a350505050565b5f5f82815481106104c8576104c7611708565b5b905f5260205f2090600602019050805f015f9054906101000a900473ffffffffffffffffffffffffffffffffffffffff1673ffffffffffffffffffffffffffffffffffffffff163373ffffffffffffffffffffffffffffffffffffffff1614610566576040517f08c379a000000000000000000000000000000000000000000000000000000000815260040161055d9061177f565b60405180910390fd5b8060030160089054906101000a900460ff16156105b8576040517f08c379a00000000000000000000000000000000000000000000000000000000081526004016105af906118b7565b60405180910390fd5b60018160030160086101000a81548160ff0219169083151502179055505f816002015490507f000000000000000000000000000000000000000000000000000000000000000073ffffffffffffffffffffffffffffffffffffffff1663a9059cbb835f015f9054906101000a900473ffffffffffffffffffffffffffffffffffffffff16836040518363ffffffff1660e01b815260040161065a9291906118d5565b6020604051808303815f875af1158015610676573d5f5f3e3d5ffd5b505050506040513d601f19601f8201168201806040525081019061069a9190611926565b6106d9576040517f08c379a00000000000000000000000000000000000000000000000000000000081526004016106d09061199b565b60405180910390fd5b815f015f9054906101000a900473ffffffffffffffffffffffffffffffffffffffff1673ffffffffffffffffffffffffffffffffffffffff16837fcf7d23a3cbe4e8b36ff82fd1b05b1b17373dc7804b4ebbd6e2356716ef202372836040516107429190611488565b60405180910390a3505050565b7f000000000000000000000000000000000000000000000000000000000000000081565b5f5f80549050905090565b5f5f5f5f5f5f5f5f888154811061079857610797611708565b5b905f5260205f2090600602019050805f015f9054906101000a900473ffffffffffffffffffffffffffffffffffffffff1681600101548260020154836003015f9054906101000a900467ffffffffffffffff168460030160089054906101000a900460ff1685600401549650965096509650965096505091939550919395565b5f5f838154811061082c5761082b611708565b5b905f5260205f2090600602019050806003015f9054906101000a900467ffffffffffffffff1667ffffffffffffffff1642111561089e576040517f08c379a000000000000000000000000000000000000000000000000000000000815260040161089590611a03565b60405180910390fd5b5f82116108e0576040517f08c379a00000000000000000000000000000000000000000000000000000000081526004016108d790611a6b565b60405180910390fd5b7f000000000000000000000000000000000000000000000000000000000000000073ffffffffffffffffffffffffffffffffffffffff166323b872dd3330856040518463ffffffff1660e01b815260040161093d93929190611a89565b6020604051808303815f875af1158015610959573d5f5f3e3d5ffd5b505050506040513d601f19601f8201168201806040525081019061097d9190611926565b6109bc576040517f08c379a00000000000000000000000000000000000000000000000000000000081526004016109b39061199b565b60405180910390fd5b81816002015f8282546109cf9190611aeb565b925050819055503373ffffffffffffffffffffffffffffffffffffffff16837fb2ed2e021651f85a4754a44651fc09ac5141bc0329ce4dfe8dd712a5d04a8b3984604051610a1d9190611488565b60405180910390a3505050565b60605f5f5f5f5f8781548110610a4357610a42611708565b5b905f5260205f2090600602016005015f8781526020019081526020015f209050805f018160010154826002015f9054906101000a900460ff168360020160019054906101000a900460ff16838054610a9a90611b4b565b80601f0160208091040260200160405190810160405280929190818152602001828054610ac690611b4b565b8015610b115780601f10610ae857610100808354040283529160200191610b11565b820191905f5260205f20905b815481529060010190602001808311610af457829003601f168201915b5050505050935094509450945094505092959194509250565b5f5f8581548110610b3e57610b3d611708565b5b905f5260205f2090600602019050805f015f9054906101000a900473ffffffffffffffffffffffffffffffffffffffff1673ffffffffffffffffffffffffffffffffffffffff163373ffffffffffffffffffffffffffffffffffffffff1614610bdc576040517f08c379a0000000000000000000000000000000000000000000000000000000008152600401610bd39061177f565b60405180910390fd5b5f8211610c1e576040517f08c379a0000000000000000000000000000000000000000000000000000000008152600401610c1590611a6b565b60405180910390fd5b5f81600401549050604051806080016040528086868080601f0160208091040260200160405190810160405280939291908181526020018383808284375f81840152601f19601f8201169050808301925050505050505081526020018481526020015f6002811115610c9357610c92611511565b5b815260200160011515815250826005015f8381526020019081526020015f205f820151815f019081610cc59190611d3f565b50602082015181600101556040820151816002015f6101000a81548160ff02191690836002811115610cfa57610cf9611511565b5b021790555060608201518160020160016101000a81548160ff021916908315150217905550905050816004015f815480929190610d3690611e0e565b919050555080867f99c090ea4e24c09baf74da49bf4100be7de555b972b1e6e4f495989738093d7985604051610d6c9190611488565b60405180910390a3505050505050565b5f5f8311610dbf576040517f08c379a0000000000000000000000000000000000000000000000000000000008152600401610db690611e9f565b60405180910390fd5b428267ffffffffffffffff1611610e0b576040517f08c379a0000000000000000000000000000000000000000000000000000000008152600401610e0290611f07565b60405180910390fd5b5f5f60018160018154018082558091505003905f5260205f209060060201905033815f015f6101000a81548173ffffffffffffffffffffffffffffffffffffffff021916908373ffffffffffffffffffffffffffffffffffffffff1602179055508381600101819055505f816002018190555082816003015f6101000a81548167ffffffffffffffff021916908367ffffffffffffffff1602179055505f8160030160086101000a81548160ff0219169083151502179055505f816004018190555060015f80549050610ede9190611f25565b91503373ffffffffffffffffffffffffffffffffffffffff16827f74fde04117590b436b183362396964e2dfe8106578e268240a05c3bac76914608686604051610f29929190611f58565b60405180910390a35092915050565b5f5f8381548110610f4c57610f4b611708565b5b905f5260205f2090600602019050805f015f9054906101000a900473ffffffffffffffffffffffffffffffffffffffff1673ffffffffffffffffffffffffffffffffffffffff163373ffffffffffffffffffffffffffffffffffffffff1614610fea576040517f08c379a0000000000000000000000000000000000000000000000000000000008152600401610fe19061177f565b60405180910390fd5b5f816005015f8481526020019081526020015f2090508060020160019054906101000a900460ff16611051576040517f08c379a0000000000000000000000000000000000000000000000000000000008152600401611048906117e7565b60405180910390fd5b6001600281111561106557611064611511565b5b816002015f9054906101000a900460ff16600281111561108857611087611511565b5b146110c8576040517f08c379a00000000000000000000000000000000000000000000000000000000081526004016110bf90611fc9565b60405180910390fd5b5f81600101541161110e576040517f08c379a000000000000000000000000000000000000000000000000000000000815260040161110590612031565b60405180910390fd5b6002816002015f6101000a81548160ff0219169083600281111561113557611134611511565b5b02179055505f816001015490505f82600101819055507f000000000000000000000000000000000000000000000000000000000000000073ffffffffffffffffffffffffffffffffffffffff1663a9059cbb845f015f9054906101000a900473ffffffffffffffffffffffffffffffffffffffff16836040518363ffffffff1660e01b81526004016111c89291906118d5565b6020604051808303815f875af11580156111e4573d5f5f3e3d5ffd5b505050506040513d601f19601f820116820180604052508101906112089190611926565b611247576040517f08c379a000000000000000000000000000000000000000000000000000000000815260040161123e9061199b565b60405180910390fd5b83857fd33fcd27cbfb73a2d9058c968b560ccb306500bf536133802048489ecc7355e9836040516112789190611488565b60405180910390a35050505050565b5f5ffd5b5f5ffd5b5f819050919050565b6112a18161128f565b81146112ab575f5ffd5b50565b5f813590506112bc81611298565b92915050565b5f602082840312156112d7576112d6611287565b5b5f6112e4848285016112ae565b91505092915050565b5f73ffffffffffffffffffffffffffffffffffffffff82169050919050565b5f611316826112ed565b9050919050565b6113268161130c565b82525050565b6113358161128f565b82525050565b5f67ffffffffffffffff82169050919050565b6113578161133b565b82525050565b5f8115159050919050565b6113718161135d565b82525050565b5f60c08201905061138a5f83018961131d565b611397602083018861132c565b6113a4604083018761132c565b6113b1606083018661134e565b6113be6080830185611368565b6113cb60a083018461132c565b979650505050505050565b5f5f604083850312156113ec576113eb611287565b5b5f6113f9858286016112ae565b925050602061140a858286016112ae565b9150509250929050565b5f819050919050565b5f61143761143261142d846112ed565b611414565b6112ed565b9050919050565b5f6114488261141d565b9050919050565b5f6114598261143e565b9050919050565b6114698161144f565b82525050565b5f6020820190506114825f830184611460565b92915050565b5f60208201905061149b5f83018461132c565b92915050565b5f81519050919050565b5f82825260208201905092915050565b8281835e5f83830152505050565b5f601f19601f8301169050919050565b5f6114e3826114a1565b6114ed81856114ab565b93506114fd8185602086016114bb565b611506816114c9565b840191505092915050565b7f4e487b71000000000000000000000000000000000000000000000000000000005f52602160045260245ffd5b6003811061154f5761154e611511565b5b50565b5f81905061155f8261153e565b919050565b5f61156e82611552565b9050919050565b61157e81611564565b82525050565b5f6080820190508181035f83015261159c81876114d9565b90506115ab602083018661132c565b6115b86040830185611575565b6115c56060830184611368565b95945050505050565b5f5ffd5b5f5ffd5b5f5ffd5b5f5f83601f8401126115ef576115ee6115ce565b5b8235905067ffffffffffffffff81111561160c5761160b6115d2565b5b602083019150836001820283011115611628576116276115d6565b5b9250929050565b5f5f5f5f6060858703121561164757611646611287565b5b5f611654878288016112ae565b945050602085013567ffffffffffffffff8111156116755761167461128b565b5b611681878288016115da565b93509350506040611694878288016112ae565b91505092959194509250565b6116a98161133b565b81146116b3575f5ffd5b50565b5f813590506116c4816116a0565b92915050565b5f5f604083850312156116e0576116df611287565b5b5f6116ed858286016112ae565b92505060206116fe858286016116b6565b9150509250929050565b7f4e487b71000000000000000000000000000000000000000000000000000000005f52603260045260245ffd5b7f6e6f742063726561746f720000000000000000000000000000000000000000005f82015250565b5f611769600b836114ab565b915061177482611735565b602082019050919050565b5f6020820190508181035f8301526117968161175d565b9050919050565b7f6e6f206d696c6573746f6e6500000000000000000000000000000000000000005f82015250565b5f6117d1600c836114ab565b91506117dc8261179d565b602082019050919050565b5f6020820190508181035f8301526117fe816117c5565b9050919050565b7f6e6f742070656e64696e670000000000000000000000000000000000000000005f82015250565b5f611839600b836114ab565b915061184482611805565b602082019050919050565b5f6020820190508181035f8301526118668161182d565b9050919050565b7f646f6e65000000000000000000000000000000000000000000000000000000005f82015250565b5f6118a16004836114ab565b91506118ac8261186d565b602082019050919050565b5f6020820190508181035f8301526118ce81611895565b9050919050565b5f6040820190506118e85f83018561131d565b6118f5602083018461132c565b9392505050565b6119058161135d565b811461190f575f5ffd5b50565b5f81519050611920816118fc565b92915050565b5f6020828403121561193b5761193a611287565b5b5f61194884828501611912565b91505092915050565b7f78666572206661696c00000000000000000000000000000000000000000000005f82015250565b5f6119856009836114ab565b915061199082611951565b602082019050919050565b5f6020820190508181035f8301526119b281611979565b9050919050565b7f656e6465640000000000000000000000000000000000000000000000000000005f82015250565b5f6119ed6005836114ab565b91506119f8826119b9565b602082019050919050565b5f6020820190508181035f830152611a1a816119e1565b9050919050565b7f616d6f756e743d300000000000000000000000000000000000000000000000005f82015250565b5f611a556008836114ab565b9150611a6082611a21565b602082019050919050565b5f6020820190508181035f830152611a8281611a49565b9050919050565b5f606082019050611a9c5f83018661131d565b611aa9602083018561131d565b611ab6604083018461132c565b949350505050565b7f4e487b71000000000000000000000000000000000000000000000000000000005f52601160045260245ffd5b5f611af58261128f565b9150611b008361128f565b9250828201905080821115611b1857611b17611abe565b5b92915050565b7f4e487b71000000000000000000000000000000000000000000000000000000005f52602260045260245ffd5b5f6002820490506001821680611b6257607f821691505b602082108103611b7557611b74611b1e565b5b50919050565b7f4e487b71000000000000000000000000000000000000000000000000000000005f52604160045260245ffd5b5f819050815f5260205f209050919050565b5f6020601f8301049050919050565b5f82821b905092915050565b5f60088302611c047fffffffffffffffffffffffffffffffffffffffffffffffffffffffffffffffff82611bc9565b611c0e8683611bc9565b95508019841693508086168417925050509392505050565b5f611c40611c3b611c368461128f565b611414565b61128f565b9050919050565b5f819050919050565b611c5983611c26565b611c6d611c6582611c47565b848454611bd5565b825550505050565b5f5f905090565b611c84611c75565b611c8f818484611c50565b505050565b5b81811015611cb257611ca75f82611c7c565b600181019050611c95565b5050565b601f821115611cf757611cc881611ba8565b611cd184611bba565b81016020851015611ce0578190505b611cf4611cec85611bba565b830182611c94565b50505b505050565b5f82821c905092915050565b5f611d175f1984600802611cfc565b1980831691505092915050565b5f611d2f8383611d08565b9150826002028217905092915050565b611d48826114a1565b67ffffffffffffffff811115611d6157611d60611b7b565b5b611d6b8254611b4b565b611d76828285611cb6565b5f60209050601f831160018114611da7575f8415611d95578287015190505b611d9f8582611d24565b865550611e06565b601f198416611db586611ba8565b5f5b82811015611ddc57848901518255600182019150602085019450602081019050611db7565b86831015611df95784890151611df5601f891682611d08565b8355505b6001600288020188555050505b505050505050565b5f611e188261128f565b91507fffffffffffffffffffffffffffffffffffffffffffffffffffffffffffffffff8203611e4a57611e49611abe565b5b600182019050919050565b7f676f616c3d3000000000000000000000000000000000000000000000000000005f82015250565b5f611e896006836114ab565b9150611e9482611e55565b602082019050919050565b5f6020820190508181035f830152611eb681611e7d565b9050919050565b7f70617374000000000000000000000000000000000000000000000000000000005f82015250565b5f611ef16004836114ab565b9150611efc82611ebd565b602082019050919050565b5f6020820190508181035f830152611f1e81611ee5565b9050919050565b5f611f2f8261128f565b9150611f3a8361128f565b9250828203905081811115611f5257611f51611abe565b5b92915050565b5f604082019050611f6b5f83018561132c565b611f78602083018461134e565b9392505050565b7f6e6f7420617070726f76656400000000000000000000000000000000000000005f82015250565b5f611fb3600c836114ab565b9150611fbe82611f7f565b602082019050919050565b5f6020820190508181035f830152611fe081611fa7565b9050919050565b7f6e6f7468696e6720746f2072656c6561736500000000000000000000000000005f82015250565b5f61201b6012836114ab565b915061202682611fe7565b602082019050919050565b5f6020820190508181035f8301526120488161200f565b905091905056fea2646970667358221220adf6578b0a8817fcc7212060db4db704d422c9c682c6d60069e1a1833d354ebb64736f6c634300081e0033",
    "linkReferences": {}
  },
  "methodIdentifiers": {
    "addMilestone(uint256,string,uint256)": "98df912e",
    "approveMilestone(uint256,uint256)": "20913da5",
    "campaigns(uint256)": "141961bc",
    "campaignsCount()": "44c89b65",
    "contribute(uint256,uint256)": "8c590917",
    "createCampaign(uint256,uint64)": "99fd22f1",
    "getCampaign(uint256)": "5598f8cc",
    "getMilestone(uint256,uint256)": "8ed9895c",
    "releaseMilestone(uint256,uint256)": "dbaf0910",
    "usdc()": "3e413bee",
    "withdraw(uint256)": "2e1a7d4d"
  },
  "id": 16
}