{"abi":[{"type":"constructor","inputs":[{"name":"name_","type":"string","internalType":"string"},{"name":"symbol_","type":"string","internalType":"string"},{"name":"initialSupply_","type":"uint256","internalType":"uint256"}],"stateMutability":"nonpayable"},{"type":"function","name":"allowance","inputs":[{"name":"","type":"address","internalType":"address"},{"name":"","type":"address","internalType":"address"}],"outputs":[{"name":"","type":"uint256","internalType":"uint256"}],"stateMutability":"view"},{"type":"function","name":"approve","inputs":[{"name":"spender","type":"address","internalType":"address"},{"name":"amount","type":"uint256","internalType":"uint256"}],"outputs":[{"name":"","type":"bool","internalType":"bool"}],"stateMutability":"nonpayable"},{"type":"function","name":"balanceOf","inputs":[{"name":"","type":"address","internalType":"address"}],"outputs":[{"name":"","type":"uint256","internalType":"uint256"}],"stateMutability":"view"},{"type":"function","name":"burn","inputs":[{"name":"from","type":"address","internalType":"address"},{"name":"amount","type":"uint256","internalType":"uint256"}],"outputs":[],"stateMutability":"nonpayable"},{"type":"function","name":"decimals","inputs":[],"outputs":[{"name":"","type":"uint8","internalType":"uint8"}],"stateMutability":"view"},{"type":"function","name":"mint","inputs":[{"name":"to","type":"address","internalType":"address"},{"name":"amount","type":"uint256","internalType":"uint256"}],"outputs":[],"stateMutability":"nonpayable"},{"type":"function","name":"name","inputs":[],"outputs":[{"name":"","type":"string","internalType":"string"}],"stateMutability":"view"},{"type":"function","name":"owner","inputs":[],"outputs":[{"name":"","type":"address","internalType":"address"}],"stateMutability":"view"},{"type":"function","name":"symbol","inputs":[],"outputs":[{"name":"","type":"string","internalType":"string"}],"stateMutability":"view"},{"type":"function","name":"totalSupply","inputs":[],"outputs":[{"name":"","type":"uint256","internalType":"uint256"}],"stateMutability":"view"},{"type":"function","name":"transfer","inputs":[{"name":"to","type":"address","internalType":"address"},{"name":"amount","type":"uint256","internalType":"uint256"}],"outputs":[{"name":"","type":"bool","internalType":"bool"}],"stateMutability":"nonpayable"},{"type":"function","name":"transferFrom","inputs":[{"name":"from","type":"address","internalType":"address"},{"name":"to","type":"address","internalType":"address"},{"name":"amount","type":"uint256","internalType":"uint256"}],"outputs":[{"name":"","type":"bool","internalType":"bool"}],"stateMutability":"nonpayable"},{"type":"function","name":"transferOwnership","inputs":[{"name":"newOwner","type":"address","internalType":"address"}],"outputs":[],"stateMutability":"nonpayable"},{"type":"event","name":"Approval","inputs":[{"name":"owner","type":"address","indexed":true,"internalType":"address"},{"name":"spender","type":"address","indexed":true,"internalType":"address"},{"name":"value","type":"uint256","indexed":false,"internalType":"uint256"}],"anonymous":false},{"type":"event","name":"OwnershipTransferred","inputs":[{"name":"previousOwner","type":"address","indexed":true,"internalType":"address"},{"name":"newOwner","type":"address","indexed":true,"internalType":"address"}],"anonymous":false},{"type":"event","name":"Transfer","inputs":[{"name":"from","type":"address","indexed":true,"internalType":"address"},{"name":"to","type":"address","indexed":true,"internalType":"address"},{"name":"value","type":"uint256","indexed":false,"internalType":"uint256"}],"anonymous":false}],"bytecode":{"object":"0x60806040523461037257610cd98038038061001981610376565b9283398101906060818303126103725780516001600160401b038111610372578261004591830161039b565b60208201519092906001600160401b0381116103725760409161006991840161039b565b9101516002805460ff1916601217905582516001600160401b038111610286575f54600181811c91168015610368575b602082101461026857601f8111610306575b506020601f82116001146102a557819293945f9261029a575b50508160011b915f199060031b1c1916175f555b81516001600160401b03811161028657600154600181811c9116801561027c575b602082101461026857601f8111610205575b50602092601f82116001146101a457928192935f92610199575b50508160011b915f199060031b1c1916176001555b3360018060a01b0319600454161760045580600355335f5260056020528060405f20556040519081525f7fddf252ad1be2c89b69c2b068fc378daa952ba7f163c4a11628f55a4df523b3ef60203393a36040516108ec90816103ed8239f35b015190505f80610125565b601f1982169360015f52805f20915f5b8681106101ed57508360019596106101d5575b505050811b0160015561013a565b01515f1960f88460031b161c191690555f80806101c7565b919260206001819286850151815501940192016101b4565b60015f527fb10e2d527612073b26eecdfd717e6a320cf44b4afac2b0732d9fcbe2b7fa0cf6601f830160051c8101916020841061025e575b601f0160051c01905b818110610253575061010b565b5f8155600101610246565b909150819061023d565b634e487b7160e01b5f52602260045260245ffd5b90607f16906100f9565b634e487b7160e01b5f52604160045260245ffd5b015190505f806100c4565b601f198216905f8052805f20915f5b8181106102ee575095836001959697106102d6575b505050811b015f556100d8565b01515f1960f88460031b161c191690555f80806102c9565b9192602060018192868b0151815501940192016102b4565b5f80527f290decd9548b62a8d60345a988386fc84ba6bc95484008f6362f93160ef3e563601f830160051c8101916020841061035e575b601f0160051c01905b81811061035357506100ab565b5f8155600101610346565b909150819061033d565b90607f1690610099565b5f80fd5b6040519190601f01601f191682016001600160401b0381118382101761028657604052565b81601f82011215610372578051906001600160401b038211610286576103ca601f8301601f1916602001610376565b928284526020838301011161037257815f9260208093018386015e830101529056fe60806040526004361015610011575f80fd5b5f3560e01c806306fdde03146106b1578063095ea7b31461063857806318160ddd1461061b57806323b872dd146104f9578063313ce567146104d957806340c10f191461045d57806370a08231146104255780638da5cb5b146103fd57806395d89b41146102df5780639dc29fac1461024c578063a9059cbb146101b8578063dd62ed3e146101685763f2fde38b146100a8575f80fd5b34610164576020366003190112610164576100c16107ad565b6004546001600160a01b038116916100da33841461084a565b6001600160a01b03169182156101205782907f8be0079c531659141344cd1fd0a4f28419497f9722a3daafe3b4186f6b6457e05f80a36001600160a01b03191617600455005b606460405162461bcd60e51b815260206004820152602060248201527f4e6577206f776e65722063616e6e6f74206265207a65726f20616464726573736044820152fd5b5f80fd5b34610164576040366003190112610164576101816107ad565b6101896107c3565b6001600160a01b039182165f908152600660209081526040808320949093168252928352819020549051908152f35b34610164576040366003190112610164576101d16107ad565b60243590335f5260056020526101ed8260405f205410156107d9565b335f52600560205260405f2061020483825461081c565b905560018060a01b031690815f52600560205260405f2061022682825461083d565b90556040519081525f5160206108975f395f51905f5260203392a3602060405160018152f35b34610164576040366003190112610164575f6102666107ad565b5f5160206108975f395f51905f5260206024359261028f60018060a01b0360045416331461084a565b60018060a01b031692838552600582526102af81604087205410156107d9565b83855260058252604085206102c582825461081c565b90556102d38160035461081c565b600355604051908152a3005b34610164575f366003190112610164576040515f6001548060011c906001811680156103f3575b6020831081146103df578285529081156103c3575060011461036d575b50819003601f01601f191681019067ffffffffffffffff82118183101761035957604082905281906103559082610783565b0390f35b634e487b7160e01b5f52604160045260245ffd5b60015f9081529091507fb10e2d527612073b26eecdfd717e6a320cf44b4afac2b0732d9fcbe2b7fa0cf65b8282106103ad57506020915082010182610323565b6001816020925483858801015201910190610398565b90506020925060ff191682840152151560051b82010182610323565b634e487b7160e01b5f52602260045260245ffd5b91607f1691610306565b34610164575f366003190112610164576004546040516001600160a01b039091168152602090f35b34610164576020366003190112610164576001600160a01b036104466107ad565b165f526005602052602060405f2054604051908152f35b34610164576040366003190112610164576104766107ad565b5f5f5160206108975f395f51905f526020602435936104a060018060a01b0360045416331461084a565b6104ac8560035461083d565b60035560018060a01b03169384845260058252604084206104ce82825461083d565b9055604051908152a3005b34610164575f36600319011261016457602060ff60025416604051908152f35b34610164576060366003190112610164576105126107ad565b61051a6107c3565b6044359160018060a01b031690815f52600560205261053f8360405f205410156107d9565b5f82815260066020908152604080832033845290915290205483116105dd5760205f5160206108975f395f51905f5291835f526005825260405f2061058586825461081c565b905560018060a01b031693845f526005825260405f206105a682825461083d565b90555f8481526006835260408082203383528452902080546105c990839061081c565b9055604051908152a3602060405160018152f35b60405162461bcd60e51b8152602060048201526016602482015275496e73756666696369656e7420616c6c6f77616e636560501b6044820152606490fd5b34610164575f366003190112610164576020600354604051908152f35b34610164576040366003190112610164576106516107ad565b335f8181526006602090815260408083206001600160a01b03909516808452948252918290206024359081905591519182527f8c5be1e5ebec7d5bd14f71427d1e84f3dd0314c0f7b2291e5b200ac8c7c3b92591a3602060405160018152f35b34610164575f366003190112610164576040515f5f548060011c90600181168015610779575b6020831081146103df578285529081156103c357506001146107255750819003601f01601f191681019067ffffffffffffffff82118183101761035957604082905281906103559082610783565b5f8080529091507f290decd9548b62a8d60345a988386fc84ba6bc95484008f6362f93160ef3e5635b82821061076357506020915082010182610323565b600181602092548385880101520191019061074e565b91607f16916106d7565b602060409281835280519182918282860152018484015e5f828201840152601f01601f1916010190565b600435906001600160a01b038216820361016457565b602435906001600160a01b038216820361016457565b156107e057565b60405162461bcd60e51b8152602060048201526014602482015273496e73756666696369656e742062616c616e636560601b6044820152606490fd5b9190820391821161082957565b634e487b7160e01b5f52601160045260245ffd5b9190820180921161082957565b1561085157565b60405162461bcd60e51b815260206004820152601860248201527f4f6e6c79206f776e65722063616e2063616c6c207468697300000000000000006044820152606490fdfeddf252ad1be2c89b69c2b068fc378daa952ba7f163c4a11628f55a4df523b3efa2646970667358221220021e9bfe8b428afb6d092e27644a3dcb22d2229e1ba7ba8608905c640dc97c5b64736f6c634300081e0033","linkReferences":{}},"methodIdentifiers":{"allowance(address,address)":"dd62ed3e","approve(address,uint256)":"095ea7b3","balanceOf(address)":"70a08231","burn(address,uint256)":"9dc29fac","decimals()":"313ce567","mint(address,uint256)":"40c10f19","name()":"06fdde03","owner()":"8da5cb5b","symbol()":"95d89b41","totalSupply()":"18160ddd","transfer(address,uint256)":"a9059cbb","transferFrom(address,address,uint256)":"23b872dd","transferOwnership(address)":"f2fde38b"},"id":17}